:100C76004F626A65637420446574656374656421B4
:100C860021210041542B434D47463D310D0A004179
:100C9600542B434D47533D222B393737393836319C
:100CA600363237373935220D0A004D6972612041D7
:100CB6006C657274212121204F626A656374204439
:100CC60065746563746564210041542B434D474642
:100CD6003D300D0A004D6573736167652053656E7F
:100CE60074004D495241205374617274696E672EC7
:100CF6002E2E0041542B444445543D310D0A0041EB
:100D06005453303D310D0A0057454C434F4D452055
:100D1600544F204D4952410052494E470043616CA1
:100D26006C20436F6E6E6563746564002B44544D8E
:100D3600463A2031004C6967687473204F4E002B89
:100D460044544D463A2032004C6967687473204F0C
:100D56004646002B44544D463A20330046616E20E9
:100D66004F4E002B44544D463A20340046616E20C7
:100D76004F4646002B44544D463A20350041697291
:100D860020436F6F6C6572204F4E002B44544D46C6
:100D96003A20360041697220436F6F6C6572204FAE
:100DA6004646002B44544D463A2037005761746539
:100DB6007220486561746572204F4E002B44544D75
:100DC600463A20380057617465722048656174653B
:100DD60072204F4646002B44544D463A2039004176
:100DE6006C61726D204F4E002B44544D463A2030B4
:100DF60000416C6C2044657669636573204F4646F6
:100E0600004E4F20434152524945520043616C6C9B
:0F0E160020446973636F6E6E65637465642100B9
:02113000C100FC
:03000B0002112BB4
:05112B00C28DD200326C
:10109500758CEC758AB7D28C7F381210DB7F0F12F6
:1010A50010DB7F011210DB7F061210DB7F80021040
:0110B500DB5F
:0510D6001210EB7F0188
:1010DB00C2808FA0C281D282C2003000FDC28222A8
:1010FE00D2808FA0C281D282C2003000FDC2822275
:05106B007BFF7D010F79
:02107000AE07C9
:101072007F80EE640270027FC0ED142FFF1210DB3E
:10108200120A69FF600C1210FE740129F9E43AFA9F
:0210920080EEEE
:011094002239
:0E110E00D2AC758921758DFD759850D28E2258
:08111C008F993099FDC2992260
:0610B6008B088A09890A7B
:1010BC00E4FEAB08AA09A90A8E82758300120A8283
:0910CC00FF600612111C0E80E900
:0110D50022F8
:03002300020FF3D6
:100FF300C0E0C0D075D000C000C00730991BAF223D
:1010030074232FF8E6FF3395E04F600BAF220522E0
:1010130074232FF8E6F599C299309818E599640D71
:101023006010E599640A600AAF21052174412FF825
:0D103300A699C298D007D000D0D0D0E032EE
:060F9A008B088A09890A98
:100FA0007E007F1E7D007B007A007923120C4A7E32
:100FB000007F1E7D007B007A007941120C4AE4FF1D
:100FC000AB08AA09A90A8F82758300120A82FEFD66
:100FD0003395E04D6013EFC3941E748094805009E4
:100FE00074232FF8A6060F80D7E4F521752201851A
:020FF000239943
:010FF20022DC
:1010EB007E007F1E7D007B007A007941120C4AE462
:0310FB00F52122BA
:100F3300C2AC7BFF7A0C79767D017F011210707A47
:100F43000C79891210B67F327E0012104B7BFF7A28
:100F53000C79951210B67F327E0012104B7BFF7A0C
:100F63000C79B01210B67F1A12111C7F327E001258
:100F7300104B7F011210DB7BFF7A0C79CF1210B676
:100F83007F327E0012104B7BFF7A0C79DB7D017F71
:070F930002121070D2AC2223
:07112400D2AFD28AD2A9224A
:0B1040007BFF7D011210707F287E00F6
:10104B00E4FDFCC3ED9FEC9E5015E4FBFA0BBB00DB
:0F105B00010ABA04F8BBFBF50DBD00010C80E4DF
:01106A002263
:10080000D286C29512112412110E121095D294D2D2
:1008100093D292D291C2847BFF7A0C79E87D017FDA
:10082000011210707F647E0012104B7BFF7A0C79EE
:10083000F9120F9A7F647E0012104B7BFF7A0D79BC
:1008400005120F9A7F647E0012104B1210EB7A0D86
:10085000790E7F011210407F011210DB750BFF75BE
:100860000C0D750D1E7B007A007941120EB1E94A1C
:100870004B60211210EB7BFF7A0D79237D017F0203
:100880001210707FA07E0F12104BD2847F011210C5
:10089000DB020A5A78417C007D007BFF7A0D7932B9
:1008A000120C2DEF3395E04F700F1210D67A0D79A0
:1008B0003B12106BC291020A3178417C007D007BB3
:1008C000FF7A0D7945120C2DEF3395E04F700F1222
:1008D00010D67A0D794E12106BD291020A317841FE
:1008E0007C007D007BFF7A0D7959120C2DEF33953A
:1008F000E04F70141210D67BFF7A0D79627D010FE4
:10090000121070C292020A3178417C007D007BFF98
:100910007A0D7969120C2DEF3395E04F7014121097
:10092000D67BFF7A0D79727D010F121070D2920280
:100930000A3178417C007D007BFF7A0D797A120CB8
:100940002DEF3395E04F70141210D67BFF7A0D799E
:10095000837D010F121070C293020A3178417C002E
:100960007D007BFF7A0D7991120C2DEF3395E04FCE
:1009700070141210D67BFF7A0D799A7D010F121038
:1009800070D293020A3178417C007D007BFF7A0DA2
:1009900079A9120C2DEF3395E04F70141210D67B0D
:1009A000FF7A0D79B27D010F121070C294020A31E4
:1009B00078417C007D007BFF7A0D79C2120C2DEF0F
:1009C0003395E04F70131210D67BFF7A0D79CB7DF3
:1009D000010F121070D294805878417C007D007B0A
:1009E000FF7A0D79DC120C2DEF3395E04F70131266
:1009F00010D67BFF7A0D79E57D010F121070D2952C
:100A0000802F78417C007D007BFF7A0D79EE120CFF
:100A10002DEF3395E04F701E1210D67BFF7A0D79C3
:100A2000F77D010F121070D291D292D293D294C25C
:100A300095121047802478417C007D007BFF7A0E60
:100A40007907120C2DEF3395E04F700E1210EB7AF0
:100A50000E79127F02121040C28430860302084BC6
:090A6000120F331210EB02084BD7
:03000000020E25C8
:0C0E2500787FE4F6D8FD75815E020E6C4B
:100A6900BB010689828A83E0225002E722BBFE028B
:090A7900E32289828A83E49322BE
:100A8200BB010CE58229F582E5833AF583E0225029
:100A920006E92582F8E622BBFE06E92582F8E22273
:0D0AA200E58229F582E5833AF583E493228D
:100AAF00E3F5F009E208B5F06D606B80F3E3F5F064
:100ABF0009E608B5F060605E80F387F009E608B5D7
:100ACF00F054605280F487F009E208B5F0486046B0
:100ADF0080F488828C8387F009E0A3B5F038603604
:100AEF0080F488828C8387F009E493A3B5F02760A4
:100AFF002580F388828C83E3F5F009E0A3B5F01627
:100B0F00601480F388828C83E3F5F009E493A3B536
:100B1F00F004600280F2020BDA808580E7808E801D
:100B2F00D2803C8015806C807E809B80B5808B80CE
:100B3F00A1804F8070803A020BE689828A83ECFA9B
:100B4F00E493F5F0A3C8C582C8CCC583CCE493A3C6
:100B5F00C8C582C8CCC583CCB5F070606E80E18902
:100B6F00828A83E493F5F0A3E208B5F05E605C80BF
:100B7F00F289828A83E0F5F0A3E608B5F04D604B69
:100B8F0080F389828A83E0F5F0A3E208B5F03C6038
:100B9F003A80F389828A83E493F5F0A3E608B5F0EF
:100BAF002A602880F2805389828A83ECFAE493F5D5
:100BBF00F0A3C8C582C8CCC583CCE0A3C8C582C882
:100BCF00CCC583CCB5F004600280E27FFFB5F002A4
:100BDF000F2240027F012289828A83ECFAE0F5F02E
:100BEF00A3C8C582C8CCC583CCE0A3C8C582C8CC76
:100BFF00C583CCB5F0D560D380E389828A83ECFAC4
:100C0F00E0F5F0A3C8C582C8CCC583CCE493A3C8D4
:100C1F00C582C8CCC583CCB5F0B160AF80E288F097
:100C2F00ED2402B4040050A3F582EB2402B40400B7
:0B0C3F0050992323458223900B28735B
:100EB1008B088A09890AAB0BAA0CA90D120A696071
:100EC10063AB08AA09A90A120A69605F850B0E853E
:100ED1000C0F850D108B118A128913AB0EAA0FA965
:100EE10010120A69FF6023AB11AA12A913120A6931
:100EF1006F7017042510F510E4350FF50F740125F7
:100F010013F513E43512F51280D1AB0EAA0FA91017
:100F1100120A697002800D7401250AF50AE4350987
:100F2100F509809DAB08AA09A90A227B007A0079FC
:020F310000229C
:100C4A00EF4E6012EF60010EEDBB010B89828A83C1
:100C5A00F0A3DFFCDEFA2289F05007F709DFFCA9CE
:0C0C6A00F022BBFEFCF309DFFCA9F02225
:100E3100020800E493A3F8E493A34003F68001F2CF
:100E410008DFF48029E493A3F85407240CC8C333C2
:100E5100C4540F4420C8834004F456800146F6DF91
:100E6100E4800B0102040810204080901130E47EE0
:100E7100019360BCA3FF543F30E509541FFEE49386
:100E8100A360010ECF54C025E060A840B8E493A34D
:100E9100FAE493A3F8E493A3C8C582C8CAC583CA78
:100EA100F0A3C8C582C8CAC583CADFE9DEE780BE30
:0111320000BC
:00000001FF
